:020000040800F2
:100000004046002099010008231600083515000815
:1000100021160008490D0008A52500080000000071
:1000200000000000000000000000000001010008C6
:100030004B0D00080000000045010008511B00089E
:10004000B3010008B3010008B3010008B3010008C0
:10005000B3010008B3010008B3010008B3010008B0
:10006000B3010008B3010008B3010008B3010008A0
:10007000B3010008B3010008B3010008B301000890
:10008000B3010008B3010008B3010008B301000880
:10009000B3010008B3010008B3010008B301000870
:1000A000B3010008B3010008B3010008B301000860
:1000B000B3010008951C0008291D0008B3010008C1
:1000C000B3010008B3010008B3010008B301000840
:1000D000B3010008B30100083D220008B301000885
:1000E000B3010008B3010008B3010008DFF80CD029
:1000F00000F03AFC004800478D34000840460020DC
:10010000224B19680868B0E8F00F80F30988BFF344
:100110006F8F4FF0000080F311884EF00D0E704786
:100120000000000006480068006880F3088862B696
:1001300061B6BFF34F8FBFF36F8F00DF00BF00BF0B
:1001400008ED00E0EFF30980BFF36F8F0F4B1A68E3
:1001500020E9F00F106008B54FF0500080F31188CF
:10016000BFF34F8FBFF36F8F04F028FB4FF00000F9
:1001700080F31188BDE8084019680868B0E8F00FFE
:1001800080F30988BFF36F8F704700BF28000020FD
:10019000EFF3058070470000064880470648004797
:1001A000FEE7FEE7FEE7FEE7FEE7FEE7FEE7FEE727
:1001B000FEE7FEE7651B0008ED00000840EA0103CA
:1001C0009B0703D009E008C9121F08C0042AFAD20D
:1001D00003E011F8013B00F8013B521EF9D27047D1
:1001E000D2B201E000F8012B491EFBD27047002279
:1001F000F6E710B513460A4604461946FFF7F0FF26
:10020000204610BD30B505462A460B4612F8010BB4
:1002100013F8014B08B1A042F8D01CB1002802D05D
:100220006D1CF1E7284630BD80EA010210B502F0EE
:100230000043400022D04A001FD0010E01EB1261A2
:10024000C0F35600C2F3560240F4000042F400022C
:10025000A0FB022000047F39140400D0401C50EAA7
:10026000124001D44000491EC2B20C0604EBD0106B
:10027000401C4008802A02D003E0002010BD20F07E
:100280000100002900DA0020184310BD30B480EAD4
:10029000010202F0004530F0004221F0004013D08E
:1002A00090B1C30DD40DC2F31601C0F31600E41AC9
:1002B00041F4000140F400027D34914201D3641CFA
:1002C00000E04900002C02DA30BC002070474FF4F7
:1002D00000000023914201D3891A034340084FEAEA
:1002E0004101F7D151B1914202D14FF0004105E0F7
:1002F00002D24FF0010101E06FF0010103EBC450A5
:10030000284430BC00F043BA2DE9FE4F804681EA14
:100310000300C00F0C46009021F0004123F000457F
:10032000B8EB0200A94105D24046214690461C4642
:100330000B46024623F00040104347D0270DC7F379
:100340000A00C3F30A510290401A019040286BDA68
:10035000C3F3130040F4801B0098924620B10023A1
:10036000D2EB030A63EB0B0B01985946C0F1400234
:10037000504600F0EBF906460D4650465946019AA4
:1003800000F0F3F910EB08006141002487EA1152F4
:1003900084EAE7731A4340D0009A62B3019A012AB3
:1003A0004FEA075215DC001B61EB02014FF00042DF
:1003B00002EA0752CDE90042001C41F580113246A5
:1003C0002B4600F02AFA03B0BDE8F08F40462146E4
:1003D000F9E7001B61EB0201001C41F580130018D6
:1003E0005B412018A2F5001747EB030140EAD570E6
:1003F000B6196D4111E06D084FEA360645EAC07541
:100400004FEA0752001B61EB0201001C41F580110D
:1004100049084FEA30000019514132462B4603B0DB
:10042000BDE8F04F00F0EAB9009801224000002337
:10043000D0EB020263EBE073009821464FEAE074D0
:10044000B8EB000061EB0401E9E783F000435BE7F0
:1004500081F0004158E72DE9FE4F81EA030404F0E2
:10046000004421F0004100944FF0000B23F00043C2
:1004700050EA01045ED052EA03045BD0C3F30A548D
:10048000C1F30A552C44A4F2F3340194A0FB0254A6
:10049000C1F3130141F48011C3F3130343F4801338
:1004A00001FB024400FB034E840A970A44EA81548C
:1004B00047EA8357A4FB076802958D0A05FB078569
:1004C0004FEA932C04FB0C542705029D4FEA065873
:1004D00047EA1637B5EB08056EEB070C870E920E50
:1004E00047EA811742EA8312A7FB0201B6EB0B0130
:1004F00064EB00042B0D43EA0C335E1844EB1C50F4
:10050000DA465146E7FB0201C5F313044FEA0B3309
:1005100043EA14534FEA0432019C43EA0603A4F170
:100520000C040294009CCDE900B400F076F903B00D
:10053000BDE8F08F00200146F9E72DE9F04D81EA92
:10054000030404F0004B21F0004514464FF0000A6C
:1005500023F0004150EA050220D054EA01021DD0E8
:10056000C5F30A570246C5F31303C1F31300C1F3E1
:100570000A5640F4801543F48013A7EB0608101BBD
:10058000D64608F2FD3873EB050002D308F10108E6
:1005900001E092185B41B8F1000F03DA0020014638
:1005A000BDE8F08D00204FF48011064684460EE031
:1005B000171B73EB050705D3121B63EB05030643FB
:1005C0004CEA010C49084FEA300092185B4150EAAE
:1005D0000107EDD152EA030012D082EA040083EA57
:1005E0000501084305D0101BAB4106D201220023B0
:1005F00006E000224FF0004302E06FF001025310CA
:100600001AEB06004CEB085110EB0A0041EB0B0112
:10061000BDE8F04D00F0F2B870B521F0004303439F
:100620000CD0C1F30A550024D5EB040564EB040398
:10063000D617AD1AB34102DB0020014670BD201869
:1006400041EB025170BD0EB540F2334102910021E1
:10065000CDE900110A460B4600F0DFF803B000BDFB
:1006600000F0004230F000400AD0C10D01F5607189
:10067000C0F3160042EA0151C20840071143704717
:1006800000200146704701F0004330B421F00041E2
:1006900050EA010206D00A0DA2F56072C1F31301FF
:1006A000002A02DC30BC00207047440F44EAC10439
:1006B000C100E01830BC00EBC25000F068B830B5A3
:1006C0000B46014600202022012409E021FA02F510
:1006D0009D4205D303FA02F5491B04FA02F52844AA
:1006E000151EA2F10102F1DC30BD2DE9F05F0546D7
:1006F000002092469B4688460646814640241BE0E1
:10070000284641464746224600F040F953465A469D
:10071000C01A914110D311461846224600F016F82F
:100720002D1A67EB01084F4622460120002100F0F8
:100730000DF817EB00094E41201EA4F10104DFDC87
:10074000484631462A464346BDE8F09F202A04DB4E
:10075000203A00FA02F1002070479140C2F12003D4
:1007600020FA03F3194390407047202A06DBCB1789
:10077000203A41FA02F043EAE07306E041FA02F35C
:10078000D040C2F120029140084319467047002929
:10079000A8BF7047401C490008BF20F00100704707
:1007A00010B4B0FA80FC00FA0CF050EA010404BF67
:1007B00010BC704749B1CCF1200421FA04F411FABD
:1007C0000CF118BF012121430843A3EB0C01CB1D01
:1007D0004FEA00614FEA102042BF002010BC704772
:1007E00000EBC35010440029A4BF10BC7047401C4C
:1007F000490008BF20F0010010BC704710B5141E5E
:1008000073F1000408DA401C41F1000192185B41C9
:100810001A4301D120F0010010BD2DE9F04D9246A0
:100820009B4611B1B1FA81F202E0B0FA80F22032B7
:100830009046FFF78BFF04460F4640EA0A0041EA64
:100840000B0153465A46084313D0114653EA0100A0
:1008500019D0C8F14002504600F098F805460E46FF
:10086000504659464246FFF771FF084305D0012024
:1008700004E020463946BDE8F08D0020054346EAF5
:10088000E0762C4337430A986305E40AA0EB08009E
:100890000022FD0A44EA47540A3002D500200146EE
:1008A000E9E7010510196941DDE9084500196941C9
:1008B000BDE8F04DA2E70EB5C10F80EAE070084434
:1008C000CA07002140F233438DE80E000A460B466A
:1008D000FFF7A3FF03B000BDC1F30A52C1F3130138
:1008E00040F2FF3341F480119A4202DA00200146BF
:1008F000704740F233439A42A2F2334202DC524242
:1009000000F044B8FFF722BF30B5041E71F10004B7
:1009100004DB4FF00044404264EB0101141E73F10C
:10092000000405DB1C464FF00043524263EB040316
:100930008B4208BF824230BD30B5041E71F1000405
:1009400004DB4FF00044404264EB0101141E73F1DC
:10095000000405DB1C464FF00043524263EB0403E6
:10096000994208BF904230BD064C074D06E0E06852
:1009700040F0010394E8070098471034AC42F6D3E6
:10098000FFF7B8FB0858000828580008202A04DBA5
:10099000203A21FA02F00021704721FA02F3D040F8
:1009A000C2F120029140084319467047002981682E
:1009B00002D041F0010101E021F0010181607047A6
:1009C000014600208968490700D501207047C06CA6
:1009D00080B270470246002012680A4200D001200F
:1009E0007047014600208968090700D5012070473B
:1009F00010B542680E4B0C791A400B6842EA04228B
:100A00001343436082680B4B1A40D1E902432343EE
:100A10004C7942EA440213438360C26A097C22F49F
:100A20007002491EC9B242EA0151C16210BD000004
:100A3000FFFEF0FFFDF7F1FF816841F008018160E2
:100A400070470029816802D041F4A00101E021F43F
:100A5000A00181607047816841F0040181607047A6
:100A60007CB503F013FB03F01BFF394C606110B938
:100A700038A001F01BFE00220421052004F064F8D8
:100A8000A06108B13BA000E043A001F00FFE304898
:100A900003251C30CDE900500023802247A14A489D
:100AA00004F022FB012848D048A001F0FFFD2849AE
:100AB0000220091DCDE90001002380224AA14D48F2
:100AC00004F012FB01283AD04BA001F0EFFD2048C2
:100AD00000230830CDE9005080224EA1504804F098
:100AE00003FB01282DD04FA001F0E0FD18490420A0
:100AF0000C31CDE900010023802251A1554804F0BA
:100B0000F3FA01281FD054A001F0D0FD10490520B0
:100B10001031CDE900010023802258A15B4804F088
:100B2000E3FA012811D05AA001F0C0FD206803F0BB
:100B30001BFCBDE87C4003F0E1BA5DA0B5E763A013
:100B4000C3E769A0D0E76FA0DEE777A0ECE700007D
:100B50009C0000204661696C656420746F2063729C
:100B600065617465206576656E742067726F757057
:100B70002E0A0000B4B4BDA84D6573736167655F4C
:100B80005175657565CFFBCFA2B6D3C1D0B3C9B9D6
:100B9000A6A3A10D0A000000B4B4BDA84D657373EF
:100BA0006167655F5175657565CFFBCFA2B6D3C12F
:100BB000D0CAA7B0DCA3A10D0A0000004C45445FD9
:100BC0005461736B00000000DD1500084C45445F64
:100BD0005461736BC8CECEF1B4B4BDA8CAA7B0DC63
:100BE000A3A10D0A00000000574946495F546173F4
:100BF0006B000000A9250008574946495F546173FE
:100C00006BC8CECEF1B4B4BDA8CAA7B0DCA3A10D09
:100C10000A00000053656E645F5461736B0000004E
:100C2000C519000853656E645F5461736BC8CECEFE
:100C3000F1B4B4BDA8CAA7B0DCA3A10D0A0000009E
:100C400054656D70657261747572655F5461736B24
:100C500000000000D91F000854656D706572617452
:100C60007572655F5461736BC8CECEF1B4B4BDA824
:100C7000CAA7B0DCA3A10D0A00000000526563659D
:100C80006976655F5461736B00000000D11700083E
:100C9000526563656976655F5461736BC8CECEF14A
:100CA000B4B4BDA8CAA7B0DCA3A10D0A000000001F
:100CB0004C45445F5461736BC8CECEF1B4B4BDA84B
:100CC000B3C9B9A6A3A10D0A0000000057494649BF
:100CD0005F5461736BC8CECEF1B4B4BDA8B3C9B9CB
:100CE000A6A3A10D0A00000053656E645F546173F2
:100CF0006BC8CECEF1B4B4BDA8B3C9B9A6A3A10D3B
:100D00000A00000054656D70657261747572655FEC
:100D10005461736BC8CECEF1B4B4BDA8B3C9B9A643
:100D2000A3A10D0A00000000526563656976655F46
:100D30005461736BC8CECEF1B4B4BDA8B3C9B9A623
:100D4000A3A10D0A00000000FEE770474FF47A717E
:100D50004843B0FBF1F003F0CFBA00000349002094
:100D600008604FF480610248FFF741BAC0000020DC
:100D70003038002001A001F0FFBA000041542B4D93
:100D8000515454434F4E4E3F0D0A000010B5C2B0AF
:100D900021A001F08BFC25A001F0EEFA28A001F0C3
:100DA00085FC2CA12EA0CDE900014FF4807431A365
:100DB00031A2214602A801F089FC3AA001F076FC9C
:100DC00064223EA102A800F031FB28B13CA001F052
:100DD0006DFC0B2042B010BD42A001F067FC40F258
:100DE0005B70009046A34CA2214602A801F06EFC65
:100DF00050A001F05BFC642230A102A800F016FBB9
:100E000020B152A001F052FC0C20E3E759A001F000
:100E10004DFC0020DEE70000D7BCB1B8C7E5B3FD4C
:100E20004D515454C1ACBDD30D0A000041542B4D5B
:100E3000515454434C45414E3D300D0A00000000D2
:100E4000C7E5B3FD4D515454C1ACBDD3B3C9B9A628
:100E50000D0A00007144734A643043716656000005
:100E6000696A366B7637747374717372707A6C78E2
:100E7000000000003132000041542B4D51545455B4
:100E80005345524346473D302C312C222573222CAA
:100E9000222573222C222573222C302C302C222246
:100EA0000D0A0000C5E4D6C3204D51545420D3C3CD
:100EB000BBA7CAF4D0D40D0A000000004F4B0000BD
:100EC000C5E4D6C3204D51545420D3C3BBA7CAF4A4
:100ED000D0D4CAA7B0DCA3ACD7BCB1B8D6D8C6F4BE
:100EE0000D0A0000C5E4D6C3204D51545420D3C38D
:100EF000BBA7CAF4D0D4B3C9B9A60D0A000000003C
:100F0000677A2D332D6D7174742E696F742D617035
:100F1000692E636F6D00000041542B4D51545443B2
:100F20004F4E4E3D302C222573222C25642C300D43
:100F30000A000000C1ACBDD3D6B8B6A8204D5154AC
:100F4000542062726F6B65720D0A0000C1ACBDD394
:100F5000D6B8B6A8204D5154542062726F6B65729A
:100F6000CAA7B0DCA3ACD7BCB1B8D6D8C6F40D0ABA
:100F700000000000C1ACBDD3D6B8B6A8204D515476
:100F8000542062726F6B6572B3C9B9A60D0A000076
:100F900000B5C1B008A300900AA24FF4807101A867
:100FA00001F094FB01A801F0E7F94FF4FA60FFF7B4
:100FB000CDFE41B000BD0000617474726962757449
:100FC0006573000041542B4D5154545055423D30EF
:100FD0002C222573222C222573222C302C300D0A32
:100FE0000000000000B5C1B006A30BA24FF4807151
:100FF000684601F06BFB14220DA1684600F016FA5A
:1010000041B000BD636F6D6D616E642F73656E647A
:101010002F3130303000000041542B4D5154545387
:1010200055423D302C222573222C300D0A00000041
:101030004F4B000038B50121042000F051FB102077
:10104000ADF8000003218DF80210064C8DF8030066
:101050006946204600F012FA01221021204600F0D5
:1010600064FA38BD0008014030B5C1B00446FFF74E
:1010700075FE11A0009013A314A24FF4807101A873
:1010800001F024FB01A801F077F94FF47A750EE026
:101090002846FFF75BFE13A11748FFF7B3F810B11E
:1010A000002041B030BD214614A001F0FFFA641EBB
:1010B000EED20120F5E700003132333435363738CF
:1010C00000000000746573740000000041542B435D
:1010D000574A41503D222573222C222573220D0AA6
:1010E000000000005749464920474F542049500D01
:1010F0000A0D0A4F4B000000303800206A6F696EFD
:1011000041702074696D656F75743A2564200D0A0D
:101110000000000010B52FA001F0C8FA642000F014
:101120003BF920B12FA001F0C1FA012010BD33A07E
:1011300001F0BCFA34A001F0B9FA642237A138A05A
:1011400000F074F920B13AA001F0B0FA022010BD0D
:101150003EA001F0ABFA42A001F0A8FA32222FA182
:1011600044A000F063F920B147A001F09FFA0320EA
:1011700010BD4DA001F09AFA50A001F097FA1E2080
:10118000FFF772FF20B152A001F090FA042010BDC9
:1011900056A001F08BFA5AA001F088FAFFF7F6FD8D
:1011A00020B15DA001F082FA052010BD62A001F01F
:1011B0007DFA67A001F07AFAFFF714FF20B169A069
:1011C00001F074FA062010BD6EA001F06FFA002045
:1011D00010BD0000D7BCB1B8B8B4CEBBC4A3BFE942
:1011E0000D0A0000B8B4CEBBCAA7B0DCA3ACD7BC14
:1011F000B1B8D6D8C6F40D0A00000000B8B4CEBB12
:10120000B3C9B9A60D0A0000D7BCB1B8C9E8D6C3A6
:10121000535441C4A3CABD0D0A0000004F4B000047
:1012200041542B43574D4F44453D310D0A000000BA
:10123000C9E8D6C3535441C4A3CABDCAA7B0DCA3EE
:10124000ACD7BCB1B8D6D8C6F40D0A00C9E8D6C32D
:10125000535441C4A3CABDB3C9B9A60D0A000000C6
:10126000D7BCB1B8C8A1CFFBD7D4B6AFC1ACBDD342
:101270000D0A000041542B43574155544F434F4EE4
:101280004E3D300D0A000000C8A1CFFBD7D4B6AF49
:10129000C1ACBDD3CAA7B0DCA3ACD7BCB1B8D6D85B
:1012A000C6F40D0A00000000C8A1CFFBD7D4B6AF2A
:1012B000C1ACBDD3B3C9B9A60D0A0000D7BCB1B843
:1012C000C1ACBDD3C2B7D3C9C6F70D0A0000000038
:1012D000C1ACBDD3C2B7D3C9C6F7CAA7B0DCA3ACF3
:1012E000D7BCB1B8D6D8C6F40D0A0000C1ACBDD386
:1012F000C2B7D3C9C6F7B3C9B9A60D0A000000002A
:10130000D7BCB1B84D515454C1ACBDD3B7FECEF12A
:10131000C6F70D0A00000000C1ACBDD34D515454B6
:10132000B7FECEF1C6F7CAA7B0DCA3ACD7BCB1B844
:10133000D6D8C6F40D0A0000C1ACBDD34D515454EB
:10134000B7FECEF1C6F7B3C9B9A60D0A000000007A
:10135000D7BCB1B84D515454B6A9D4C4D6F7CCE2D9
:101360000D0A00004D515454B6A9D4C4D6F7CCE2AE
:10137000CAA7B0DCA3ACD7BCB1B8D6D8C6F40D0AA6
:10138000000000004D515454B6A9D4C4D6F7CCE2A5
:10139000B3C9B9A60D0A000070B5144D0446002269
:1013A0001021284600F0C1F84FF4FA70FFF7CEFC88
:1013B00001221021284600F0B8F80D4D12E06420FB
:1013C000FFF7C4FC0BA10D48FEF71CFF08B100207D
:1013D00070BD0A4A29680AA001F068F921460EA0EA
:1013E00001F064F9641EEAD2012070BD00080140DA
:1013F000C000002072656164790000003038002070
:1014000072657365742072783A2073697A653A253B
:10141000642025730D0A0000726573657420746979
:101420006D656F75743A25640000000070B5144650
:101430000D460646FFF792FC304600F09DFF0DE09A
:101440006420FFF783FC29460748FEF7DBFE08B15E
:10145000002070BD214605A001F028F9641EE4B209
:10146000EED2012070BD00003038002074696D6537
:101470006F75743A2564200D0A000000F0B5CC7831
:10148000002204F00F03E40601D58C7823430C7886
:101490004FF00F0C14F0FF0F4FF0010E1BD005683A
:1014A0000E880EFA02F42640A64210D196000CFADD
:1014B00006F725EA070703FA06F5CE783D43282EFE
:1014C00002D0482E02D002E0446100E00461521CC8
:1014D000082AE5D305600A88FF2A1CD9446800223F
:1014E00002F108060EFA06F50E882E40AE420ED125
:1014F00096000CFA06F7BC4303FA06F7CE783C4395
:10150000282E00D14561CE78482E00D10561521CAD
:10151000082AE5D34460F0BD0246002092680A42E2
:1015200000D001207047016170470AB10161704726
:1015300041617047FEE7000038B50121082000F046
:10154000CFF80220ADF80000084D48248DF8034084
:1015500069462846FFF792FFE914ADF800108DF8B0
:10156000034069462846FFF789FF38BD000C01405B
:1015700070B50C460546FFF7CFFF08B1002070BDDF
:1015800021462846FFF7C8FF0028F9D0012070BD8A
:1015900038B50121042000F0A3F80120ADF80000C7
:1015A00010208DF8030003200B4C8DF802006946D3
:1015B0002046FFF763FF0221ADF800106946204680
:1015C000FFF75CFF01212046FFF7ADFF0221204617
:1015D000FFF7A9FF38BD000000080140DFF83C809C
:1015E00008B50D4F4FF0FF3602244FF4FA75A8F1FD
:1015F00004090096012300220221786903F0C2F950
:10160000C8F800402846FFF7A1FBC9F8004028466B
:10161000FFF79CFBEDE700009C0000201408014050
:10162000FEE7704730B50F23C27801780125F2B18B
:10163000144A126801F1E02102F4E062C2F5E062AE
:10164000120AC2F10404D3404278A24084781C40BC
:101650001443220181F80024007800F01F018D401E
:101660004009800000F1E020C0F8005130BD01F0D9
:101670001F0085404809800000F1E020C0F880513B
:1016800030BD00000CED00E002490843024908604B
:10169000704700000000FA050CED00E0034A5168B5
:1016A00021F44041014351607047000000100240A6
:1016B000044A0029D16901D0014300E08143D1618E
:1016C0007047000000100240044A0029116901D04F
:1016D000014300E0814311617047000000100240A7
:1016E000044A0029916901D0014300E081439161DE
:1016F0007047000000100240044A0029D16801D060
:10170000014300E08143D1607047000000100240B7
:1017100030B5204A5168204B11F00C0103D0042948
:1017200001D0082901D0036012E05168536801F428
:1017300070114FF0020413F4803F04EB914102D08A
:1017400053689B0301D5154B00E0134B59430160CF
:1017500051680F2303EA1111114B5C5C0168E140F1
:1017600041605468072505EA14241C5D21FA04F43D
:101770008460546805EAD4241B5DD940C160526876
:10178000032303EA9232064B1B1F9A5CB1FBF2F172
:10179000016130BD0010024000127A0000093D00D6
:1017A0001800002082688AB1036800F10C029B5C7B
:1017B0000B700368002199540188491CC1F3090189
:1017C00001608168491E81600020704701207047D8
:1017D0001CB5DFF8D480354D4FF0FF3900260123CA
:1017E000CDF8009000221946686903F0CBF8304824
:1017F00000F0B0F8040050D0601C01F0B9FE0746BC
:10180000014622462A4800F0B4F83E55394629A040
:1018100000F04CFF2BA13846FEF7F4FCB0B12DA12F
:101820003846FEF7EFFC88B12BA000F03FFF98F898
:1018300000104046012934D00178012906D90670EC
:1018400000F0F0F90221686903F044F826A1384657
:10185000FEF7D8FC00281DD026A13846FEF7D2FCA2
:10186000C0B126A000F022FF00F04AFC0023019046
:101870001A4601A9A86903F0B9FA012802D024A0E8
:1018800000F014FF0198FEF7EBFE02460B4628A07D
:1018900000F00CFF384601F023FC142002F02CFD70
:1018A0009DE70670D2E70000BC0000209C000020ED
:1018B000303C002052656365697665643A20257383
:1018C0000A0000002B4D515454434F4E4E3A302CD9
:1018D000360000004F4B000050494E47B1A8CEC41F
:1018E000BBD8B8B40D0A000067657456616C7565A5
:1018F000000000007374617465000000B7FECEF153
:10190000C6F7B5C8BCB630CDC6CBCD0D0A000000B9
:10191000446174612051756575652046756C6C2C49
:1019200020446174612044726F707065640D0A0018
:1019300067657456616C75652067657454656D7074
:10194000657261747572653A20252E326620430DEA
:101950000A000000002806D003C88142A1EB000065
:1019600001D200F580607047002101604160816014
:101970007047F0B516460D4607004FF0000400D042
:1019800035B90320F0BD29193846FFF70BFF641C59
:10199000B442F8DB0020F0BD2DE9F04116460D46BB
:1019A00007004FF0000400D03DB90320BDE8F081EE
:1019B000295D384600F056FE641CB442F8DB002076
:1019C000F4E70000A4B0802102A8FEF710FC1A4C36
:1019D0004FF0FF350095012300220221606902F0DB
:1019E000D1FF00232A4622A9A06903F0E5F80146A9
:1019F000012806D011A000F059FE142002F07CFC52
:101A0000EFE72298FEF72CFECDE9000113A280211A
:101A100002A800F05BFE02F039FB02A8FFF7B8FA5B
:101A200002F06CFB2298FEF71BFE02460B4611A04B
:101A300000F03CFEE1E700009C000020CAFDBEDD96
:101A4000BDD3CAD5B3F6B4EDA3ACB4EDCEF3B4FABE
:101A5000C2EB3078256C780D0A0000007B5C2274A4
:101A6000656D70657261747572655C223A20252E11
:101A700032667D0073656E64204461746120746F0A
:101A8000205468696E6773436C6F75643AB1BEB475
:101A9000CEBDD3CAD5B5BDB5C4CAFDBEDDCAC72546
:101AA0002E32660D0A0000000CB500222648009276
:101AB0000192016841F4803101604FF4A063016834
:101AC00001F4003101910099491C0091019911B96B
:101AD00000999942F3D10168890333D5012101911D
:101AE0001A490A6842F010020A600A6822F00302EA
:101AF0000A600A6842F002020A6041684160416877
:101B00004160416841F480614160416821F47C1189
:101B10004160416841F4E8114160016841F0807121
:101B2000016001688901FCD5416821F00301416031
:101B3000416841F0020141604168C1F3810102291D
:101B4000FAD10CBD01920CBD0010024000200240F1
:101B500010B503F0F5FA012803D0BDE8104002F0FB
:101B6000DDBF10BD0F4810B5016841F001010160F3
:101B700041680D4A1140416001680C4A1140016002
:101B8000016821F480210160416821F4FE01416077
:101B90004FF41F018160FFF787FF05494FF0006098
:101BA000086010BD001002400000FFF8FFFFF6FEC5
:101BB00008ED00E07FB501210220FFF779FD184D07
:101BC000284600F0EDF844F61F60ADF8040041F639
:101BD0001F40ADF800000024ADF80240ADF806400B
:101BE0006946284600F0AAF90121284600F0CAF803
:101BF00001221146284600F097F90121284600F0FD
:101C0000C4F81D208DF80C0006208DF80D008DF80D
:101C10000E4001208DF80F0003A8FFF703FD7FBDE4
:101C2000000400407FB501210220FFF741FD184D5F
:101C3000284600F0B5F84EF65F20ADF8040048F6EF
:101C40009F40ADF800000024ADF80240ADF806401A
:101C50006946284600F072F90121284600F092F802
:101C600001221146284600F05FF90121284600F0C4
:101C70008CF81D208DF80C0007208DF80D008DF8D4
:101C80000E4001208DF80F0003A8FFF7CBFC7FBDAD
:101C90000004004070B51A4D0121284600F038F9C3
:101CA00000282BD0174C217817A000F0FFFC2078DB
:101CB00006281AD2DFE800F0030603030311FFF73A
:101CC00059F812E0FFF776FF134800230268134823
:101CD0000168134803F03EFDF1E71248006803F085
:101CE00025FC0021284600F050F82078401C207088
:101CF0002846BDE87040012100F044B870BD0000E6
:101D000000040040BC00002070696E67466C61678B
:101D10003D25640D0A0000007C570008B00000203B
:101D200025400008A000002070B5114D0121284673
:101D300000F0EEF8002819D00E4C22680E490F482A
:101D4000FFF72AFE0020206001460D4800F0F4F85D
:101D50000021284600F019F80021284600F0ECF890
:101D60002846BDE87040012100F00CB870BD0000AD
:101D700000080040C000002030380020303C002027
:101D800000040040C943018270470029018802D045
:101D900041F0010101E021F00101018070470000E4
:101DA0004B4910B5884202D10121C41486E0B0F13C
:101DB000804F09D0474988420DD101210220FFF709
:101DC00083FC0021022064E001210846FFF77CFC2F
:101DD000002101205DE04049884206D10121042014
:101DE000FFF772FC0021042053E03C49884206D1F1
:101DF00001210820FFF768FC0021082049E038494C
:101E0000884206D101211020FFF75EFC002110203E
:101E10003FE03449884206D101212020FFF754FCDD
:101E20000021202035E03049884202D101214414AC
:101E300044E02E49884202D10121CC043EE02C49E5
:101E4000884202D101210C0538E02A49884202D19A
:101E500001214C0532E02849884206D10121402069
:101E6000FFF732FC0021402013E02449884206D1CC
:101E700001218020FFF728FC0021802009E0204973
:101E800088420AD1841501212046FFF71DFC00215C
:101E90002046BDE81040FFF717BC1A49884202D11E
:101EA00001210C040AE01849884202D101214C04A6
:101EB00004E0164988420AD101218C042046FFF72C
:101EC0001BFC2046BDE810400021FFF715BC10BDEB
:101ED000002C01400004004000080040000C0040BD
:101EE000001000400014004000340140004C01404C
:101EF000005001400054014000180040001C004008
:101F000000200040004001400044014000480140E2
:101F100002460020138A92890B4202EA010202D093
:101F2000002A00D001207047002A828901D00A438C
:101F300000E08A43828170478184704730B502880F
:101F40001B4C1C4DA0420DD0A8420BD0B0F1804FCD
:101F500008D0194B984205D0184B984202D0184B24
:101F6000984203D122F070034A881A43154B9842D5
:101F700006D0154B984203D022F44073CA881A4306
:101F800002808A8882850A880285A0420AD0A842F7
:101F900008D00E4A904205D00D4A904202D00D4A18
:101FA000904201D1097A01860121818230BD000071
:101FB000002C0140003401400004004000080040B3
:101FC000000C0040001000400014004000400140A0
:101FD00000440140004801401CB5154E154C4FF01F
:101FE000FF350095012300220221606902F0CAFC3E
:101FF00002213046FFF7BCFA012815D100F080F825
:10200000002301901A4601A9A06902F0EFFE012801
:1020100002D009A000F04AFB0198FEF721FB02461E
:102020000B460DA000F042FB142002F065F9D8E742
:10203000000C01409C0000204461746120517565D2
:1020400075652046756C6C2C204461746120447267
:102050006F707065640D0A0067657454656D706516
:102060007261747572653A20252E326620430D0A1E
:102070000000000010B586B001210420FFF730FBFE
:102080004020ADF8140000248DF8174003208DF88F
:10209000160005A91848FFF7F1F94FF40040FFF7C3
:1020A000FDFA01214802FFF71BFB4FF46020CDE948
:1020B00002048DF8044000948DF8054001200F4C77
:1020C0008DF8100069462046FEF792FC012120465B
:1020D000FEF76CFC2046FEF7AFFC2046FEF781FCC5
:1020E0000028FAD12046FEF7B6FC2046FEF768FC31
:1020F0000028FAD106B010BD0008014000240140BC
:102100002DE9F0412B4C01212046FEF79AFC0221DB
:102110002046FEF75FFC0028F9D02046FEF757FC6A
:10212000FEF791FA244C4FF0663842462346FEF7FC
:1021300092F96FF00B02FEF76FFAFEF7A4FA07466A
:10214000FEF78EFA42462346FEF782F91B4E0D46F5
:10215000044631463846FEF767F8FEF781FA224614
:102160002B46FEF7EAF9FEF78EFA01463046FEF7F7
:102170008DF8FEF775FA00F0DBFFFEF784FA1049E0
:10218000FEF784F8FEF76CFA0E4A0F4BFEF7BCF828
:1021900002460B4600200D49FEF7CFF9FEF773FA11
:1021A000FEF75EFA42460A4BFEF74FF9BDE8F041F2
:1021B000FEF769BA0024014066660A4000401C46EA
:1021C00000B0564583DBB5DCE1796B3F0000F03FA2
:1021D000661271407FB50D46044601210420FFF7C9
:1021E00067FAADF80440ADF800500024124DADF888
:1021F0000240ADF8064069462846FFF79FFE0121E0
:102200002846FFF7BFFD012211462846FFF78CFE46
:1022100000212846FFF7B9FD1E208DF80C0006208E
:102220008DF80D008DF80E4001208DF80F0003A8E9
:10223000FFF7F8F97FBD0000000800402DE9F047E6
:102240005020EFF3118680F31188BFF34F8FBFF357
:102250006F8F1A4C40F225594946204600F00DF97F
:1022600018B3A046204600F095F9C4B2144800689F
:1022700002F023FB134F144DC00706D02968134802
:10228000B9B10021FFF758FE00E024B128683918E1
:10229000401C28600C702868B0F5806F01D30020C6
:1022A00028604946404600F07BF886F31188BDE877
:1022B000F0870121FFF769FDE8E7000000440040D6
:1022C000B000002030380020C0000020000800408E
:1022D00030B587B001210420FFF702FA012148043C
:1022E000FFF7E6F90424ADF8104018208DF813002C
:1022F00003201F4D8DF8120004A92846FFF7BEF8F1
:102300000821ADF810108DF8134004A92846FFF7F6
:10231000B5F800244FF4E1300090ADF808400C20EF
:10232000144DADF80440ADF80A00ADF80640ADF824
:102330000C406946284600F0D7F80121284600F0F5
:1023400035F8012240F22551284600F0B5F8262044
:102350008DF8140005208DF815008DF81640012029
:102360008DF8170005A8FFF75DF907B030BD000034
:10237000000801400044004070B50446074D09E0E4
:102380002846641C00F00AF98021284600F06EF807
:102390000028F9D021780029F2D170BD0044004016
:1023A0000A0A01219140C9430180704700298189AF
:1023B00002D041F4005101E021F4005181817047C5
:1023C00030B587B001210420FFF78AF90121880385
:1023D000FFF786F94FF40070ADF8100018208DF863
:1023E000130003201F4C8DF8120004A92046FFF7AC
:1023F00045F82115ADF8101004218DF8131004A92B
:102400002046FFF73BF800244FF4E1300090ADF890
:1024100008400C20144DADF80440ADF80A00ADF8AA
:102420000640ADF80C406946284600F05DF82521CD
:102430008DF8141006208DF815008DF81640012037
:102440008DF8170005A8FFF7EDF8012240F225519D
:10245000284600F031F801212846FFF7A7FF07B012
:1024600030BD000000080140003801400246002055
:1024700012880A4200D00120704770B501F01F0594
:1024800001260024C1F3421306FA05F2012B0FD0F6
:10249000022B0FD0838A4FEA11210088134206FADB
:1024A00001F600EA060001D000B10124204670BD0B
:1024B0008389F0E7038AEEE710B5C1F3421301F018
:1024C0001F040121A140012B07D0022B07D014309B
:1024D000002A026805D00A4304E00C30F8E7103007
:1024E000F6E78A43026010BD30B50446008A85B025
:1024F0000D464CF6FF710840E98801432182A0890E
:102500004EF6F3110840A9882A8911436A890243CB
:102510001143A181A08A4FF6FF410840A9890143D8
:10252000A1826846FFF7F4F81948844201D1039864
:1025300000E00298A189090400EBC00101EB001042
:10254000296801D5490000E08900B0FBF1F0642260
:10255000B0FBF2F109010B096FF018056B4300EBBA
:102560008300A3891D044FF0320306D503EBC0009E
:10257000B0FBF2F000F0070005E003EB0010B0FB49
:10258000F2F000F00F000843208105B030BD0000DC
:10259000003801408088C0F308007047C1F308018B
:1025A00081807047FEE700001C4FDFF874801D4CEF
:1025B0001D4E00251DA000F079F800213846FFF7D8
:1025C000E4FB00214046FFF7E0FB0221606902F0D6
:1025D00035F9FEF7C3FBFEF79DFDD0B918A000F05A
:1025E00065F8FEF7BBFB0121606902F073F9FFF7A4
:1025F00019FB35700221606902F06CF9002002F0CD
:102600006BF80121606902F019F90221606902F09A
:1026100015F91420FEF79AFBCCE7000000080040F3
:10262000000400409C000020BC000020D0E8D2AA9A
:10263000C1ACBDD3B7FECEF1C6F70D0A0000000055
:1026400057494649BCB04D515454B7FECEF1C6F778
:10265000C1ACBDD3B2A2B6A9D4C4B3C9B9A60D0A40
:102660000000000070B5044642680C304FF48065ED
:102670001154A088401CC0F309006060A068401C91
:10268000A060A84208D305A000F010F8A560A088BB
:10269000401CC0F309002060002070BDBBBAB3E548
:1026A000C7F8D2D1C2FA0D0A000000000FB4054BE2
:1026B00010B503A9044A029800F05EF910BC5DF859
:1026C00014FB0000BD300008C40000200FB41CB58E
:1026D0000246002007AC00290BD0491ECDE900219D
:1026E000054B6A462146069800F046F9009A0021FB
:1026F00011701CBC5DF814FBA73000082DE9F041F7
:102700004F1E00EBC7010446D1E9000115461E46E5
:1027100037F006020DD02A463346FDF79CFE7F1E99
:1027200004EBC703D3E90023FDF7EEFD37F0060203
:10273000F1D1022F25D0042F13D0062F18BFBDE8EA
:10274000F0812A463346FDF786FED4E90A23FDF7D9
:10275000DBFD2A463346FDF77EFED4E90823FDF76C
:10276000D3FD2A463346FDF776FED4E90623FDF76E
:10277000CBFD2A463346FDF76EFED4E90423FDF770
:10278000C3FD2A463346FDF766FED4E90223FDF772
:10279000BBFD2A463346FDF75EFED4E90023BDE8C3
:1027A000F041FDF7B1BD000000221346104601497B
:1027B000FDF7C3BE0000F03F0122FDF72DBF002250
:1027C000134610461146FDF7B8BE02E008C8121FB6
:1027D00008C1002AFAD170477047002001E001C10A
:1027E000121F002AFBD170470149086070470000A2
:1027F000D00000202DE9FF5F82B00021DDE9043028
:10280000020DDDF840B0034318D044F61050A2F298
:10281000FF3242431514119801281FD0A5EB0B007D
:10282000401C5FEA000A4FF000064E4FDFF8389177
:10283000B046504615D5CAF1000413E011980124A2
:102840004AA3012801D16FEA0B010298119AC0E94D
:102850000031C0E9024206B0BDE8F09FCBF10000B4
:10286000DFE704460021404A491842EB0450CDE915
:10287000001012E0E00707D032463B46404649468A
:10288000FDF7E9FD8046894632463B46104619462B
:10289000FDF7E1FD06460F466410002CEAD1DDE9A4
:1028A0000401DDE90023BAF1000F06DAFDF7D3FDDC
:1028B00042464B46FDF7CFFD05E0FDF73EFE4246A2
:1028C0004B46FDF73AFE04460E460022284BFEF723
:1028D00033F803D84FF0FF30014607E00022254BC4
:1028E00020463146FDF710FDFDF7F6FF102409E004
:1028F000002C0ADB0A220023FDF7F7FE039B30328F
:102900001A55641E50EA0102F2D1641C039AC4F104
:1029100011031444119A012A03D0012208430DD156
:102920000AE0084304D000204FF0110B119072E729
:10293000A3EB0B056D1E0DE05B4504DD4FF00002BF
:1029400005F1010504E003DA4FF00002A5F10105ED
:10295000002AECD002981199C0E90231C0E9004583
:1029600079E70000000014400000F03F3000000054
:102970000000F0430000E03F2DE9FF4F95B09B467B
:102980008946064600250FE2252877D100242746F0
:10299000F84A0121059400E0044316F8013F203B6A
:1029A00001FA03F01042F7D130782A2811D06FF0E5
:1029B0002F033078A0F13002092A16D8059A44F086
:1029C000020402EB820203EB42021044761C0590E3
:1029D000EFE759F8042B0592002A03DA504244F439
:1029E0000054059044F00204761C30782E2816D14D
:1029F00016F8010F44F004042A280DD06FF02F02BE
:102A00003078A0F13003092B09D807EB870302EBDC
:102A10004303C718761CF3E759F8047B761C30781B
:102A20006C280FD006DC4C2817D068280DD06A28F7
:102A300014D104E0742810D07A280FD10DE044F4AA
:102A400000140AE044F4801401E044F44014727865
:102A5000824202D104F58014761C761C30786628F8
:102A60000BD013DC582877D009DC002875D0452816
:102A7000F6D04628F4D047281AD19DE118E0632803
:102A800035D0642879D0652812D195E1702873D0AB
:102A900008DC6728F1D069286FD06E280DD06F2828
:102AA00006D1B5E073282CD0752875D0782874D05D
:102AB0005A46179990476D1C75E1C4F302500228DD
:102AC00009D003280DD0D9F8001004280DD00D60CE
:102AD00009F1040967E1D9F80010EA17C1E90052C9
:102AE000F6E7D9F800100D80F2E70D70F0E719F85D
:102AF000041B8DF8001000208DF80100EA4601202B
:102B000003E059F804AB4FF0FF3061074FF00001CC
:102B100002D40DE008F101018846B9420FDA804580
:102B2000F8DB1AF808100029F4D108E008F10101D7
:102B300088468142FADB1AF808100029F6D1059878
:102B40005B46A0EB080721463846179A00F094FA36
:102B5000284400EB080507E04DE029E10DE01AF8F4
:102B6000010B5A4617999047B8F10108F7D25B4616
:102B700021463846179A13E142E00A220092C4F334
:102B800002524FF0000A022A08D059F804CB032A57
:102B90004FEAEC710AD00DE029E02AE009F10701C3
:102BA00021F00702F2E802C1914609E00FFA8CFC1D
:102BB0004FEAEC71042A03D14FFA8CFC4FEAEC7116
:102BC000002907DA0A460021DCF1000C61EB020162
:102BD0002D2202E0220504D52B228DF804200122AB
:102BE00003E0E20701D02022F7E7904659E00A21EE
:102BF00002E010220DE010214FF0000A00910BE0DE
:102C000010224FF0000A44F004040827009203E069
:102C100008224FF0000A0092C4F30252022A05D0A3
:102C200059F804CB0021032A08D009E009F1070173
:102C300021F00702F2E802C1914605E01FFA8CFC80
:102C4000042A01D10CF0FF0C4FF00008220728D510
:102C5000702806D0009B83F0100353EA0A0305D0C6
:102C60000EE040228DF80420012208E05CEA010217
:102C700006D030228DF804208DF8050002229046FF
:102C8000009B83F0080353EA0A030AD15CEA0102BD
:102C900001D1620705D530228DF804204FF00108DC
:102CA0007F1E582804D034A003900EA802900DE097
:102CB00036A0F9E753466046009AFDF716FD8446B4
:102CC0000398825C0298401E029002705CEA010048
:102CD000F0D1029806A9081A00F1200A600702D56F
:102CE00024F4803400E00127574502DDA7EB0A00F9
:102CF00000E0002000EB0A01009005984144401AD2
:102D00000590E00306D45B462146179A059800F02B
:102D1000B3F90544002706E001A85A46C05D17999B
:102D200090476D1C7F1C4745F6DBE0030CD55B46E6
:102D30002146179A059800F09FF9054404E03020D9
:102D40005A46179990476D1C0099481E009000291B
:102D5000F5DC08E0029802995A460078491C029175
:102D6000179990476D1CBAF10001AAF1010AF1DC34
:102D700065E100000928010030313233343536373F
:102D800038396162636465660000000030313233B7
:102D90003435363738394142434445460000000057
:102DA00000F058F90544761C307800287FF4ECAD2B
:102DB00019B02846BDE8F08F620700D4062709F154
:102DC000070222F0070CFCE80223E14603F000486A
:102DD0005FEA080C02D00FF2702C0DE05FEA045C91
:102DE00002D50FF2682C07E05FEAC47C02D00FF234
:102DF000602C01E0AFF2700C4FF0FF3823F000437D
:102E0000CDF850C065280CD006DC452809D04628EE
:102E10001DD047283DD13DE0662818D067287ED1D7
:102E200038E00021112F01DB112000E0781CCDE9F2
:102E3000000106A90EA8FFF7DDFCDDE90F010E9ADF
:102E400003910021009207F1010A04914DE04FF037
:102E500000400097CDE9011006A90EA8FFF7CAFCB3
:102E6000DDE90F0203920E9B11990022DDF80CA000
:102E70000093049211B9791C00EB010AB7EB0A0028
:102E800004D4C0F1FF3007F1010A0490AAEB070057
:102E9000019044E0012F00DA01270021112F01DD0C
:102EA000112000E03846CDE9000106A90EA8FFF781
:102EB000A1FCDDE90F010E9A03910021049100921B
:102EC000BA4621070CD40399514500DA8A46BAF173
:102ED000010F05DD009AAAF10101515C302908D0EB
:102EE000B84202DA10F1040F06DA0121CDE901102F
:102EF00015E0AAF10101E9E7002805DC0499014485
:102F00000491AAEB000102E0411C514500DD8A4614
:102F10000499401A401C01904FF000400290200795
:102F200004D40198504501DBCDF8048000208DF8D1
:102F30004F0002980DF14F07B0F1004F25D02B2024
:102F40000E9002984FF0020800280CDA40420290DE
:102F50002D200E9007E00A210298FDF7B0FB3031DA
:102F6000029007F8011DB8F10001A8F10108F2DC98
:102F700002980028EFD1791E0E980870307800F082
:102F8000200040F0450007F8020D12A8C01B00F118
:102F900007081498007800B1012000EB0A0101989D
:102FA00001EBE07105984144401A401E0590E00392
:102FB00006D45B462146179A059800F05DF8054453
:102FC0001498007818B15A46179990476D1CE00381
:102FD00024D55B462146179A059800F04DF8054424
:102FE0001CE00498002807DBDDE90301884203DDCB
:102FF0000098405C179901E0179930205A46904795
:10300000049805F10105401C04900198401E0190B0
:1030100004D12E205A46179990476D1CBAF1000131
:10302000AAF1010ADDDC05E017F8010B5A461799F1
:1030300090476D1CB8F10001A8F10108F4DC5B4673
:103040002146179A0598ABE62D0000002B000000E2
:10305000200000002DE9F041044600251E461746D9
:10306000880404D405E039462020B0476D1C641E56
:10307000F9D52846BDE8F0812DE9F0410446002548
:103080001E469046C80301D5302700E0202788045B
:1030900004D505E041463846B0476D1C641EF9D59D
:1030A0002846BDE8F0814A68002A06D00A68531C09
:1030B0000B6010704868401E4860704770B5074D3F
:1030C0000446C1B22846FFF769FA80212846FFF777
:1030D000CDF90028F9D0204670BD0000003801402D
:1030E00010B5002821D0114B0022001F196803E001
:1030F000814203D80A4649680029F9D152B11368C0
:10310000841A9C4204D1006818441060104602E002
:10311000506000E0186039B102680B1A934203D185
:103120000B681A4402604968416010BDC800002065
:103130002DE9F04DC84A002490B0914205DA21F003
:103140000043934201D805D120B110B0BDE8F04D45
:10315000FFF732BBB1F5801F1BDA53EA000209D03A
:10316000002911DA0120FFF73FFB10B0BDE8F04D58
:10317000FFF725BB0220FFF737FBFFF715FB10B069
:1031800081F00041BDE8F08D6FF035043622FDF787
:1031900043FA04EB2152C1F31308B049A2F2FF3302
:1031A000414401F4801282F07F6103EB225281F0EE
:1031B0004051009241EA08010022A94BFDF745F970
:1031C000044608F10200A74EC0F313000D467E44EA
:1031D000032867D2D6E900232046FDF795FB1ED1D0
:1031E0000098002802BFD6E9000110B0BDE8F08DBC
:1031F000FDF761FB07460C469B4A9C4BFDF72BF9FC
:1032000006460D469A4A9B4B38462146FDF723F960
:1032100010B032462B46BDE8F04DFDF775B84FF0C3
:103220005532954B20462946FDF715F90022934B60
:10323000FDF70EF906460F4622462B461046194664
:10324000FDF709F932463B46FDF705F906460098B9
:103250000F46F0B1FDF72FFB80468A46824A834B2A
:10326000FDF7F9F832463B46FDF7F2F822462B46C9
:10327000FDF7EBF805460C467D4A7E4B404651462D
:10328000FDF7E9F810B02A462346BDE8F04DFDF7FA
:10329000DCB80B4610B0324620462946BDE8F04D5A
:1032A000FDF7D3B800224FF080432046FDF72CF8FD
:1032B00002460B4620462946FDF73FF906460F46D3
:1032C0000098FDF7F8FACDE9040132463B46104676
:1032D0003946FDF7C0F80C9069480C9A40440190BB
:1032E00009910B461046FDF7B6F88246024665483E
:1032F0008B46C8F151080B4608F5D72803217844BE
:10330000FFF7FCF952465B46FDF7A5F80A905E48C8
:103310000D9152465B4604217844FFF7EFF9099B73
:103320000C9AFDF798F8844601980D9B40EA08082E
:1033300060460A9AFCF7E8FF83460891B8F1000F4F
:103340004EDD4FF0FF3220462946FDF765F9224653
:103350002B46FDF780F8804600988A4660B3DDE989
:103360000401414A414BFDF776F8099100905A4615
:1033700040465146089BFCF7C7FF32463B46FDF7E7
:103380006AF8099B009AFCF7BFFF42465346FDF7D7
:103390005FF822462B46FDF758F804460D46DDE956
:1033A0000401334A334BFDF756F810B022462B4642
:1033B000BDE8F04DFDF749B85A464046089BFCF77A
:1033C000A3FF32463B46FDF746F842465346FDF71B
:1033D0003FF810B022462B46BDE8F04DFDF738B857
:1033E000009840B3DDE904011F4A204BFDF733F894
:1033F00080468A465A4620462946089BFDF725F80E
:1034000032463B46FDF727F842465346FDF71DF886
:1034100022462B46FDF719F804460D46DDE9040166
:10342000134A144BFDF717F810B022462B46BDE89F
:10343000F04DFDF70AB80B465A4620462946FDF7DF
:1034400004F832463B46FDF706F810B022462B46FC
:10345000BDE8F04DFCF7FCBF0000F07F645F0900A1
:103460000000F03FE6250000763C7935EF39EA3D73
:103470000000E0FE422EE63F5555D53F0000E03FFC
:1034800086EBF9FF7E2400007C2400001CB54FF47D
:103490004070FEF7F9F81848FEF766FA4FF4E1516C
:1034A0004FF4FA70FEF796FEFEF772F8FEF788FF0B
:1034B000FEF742F8FEF70CFFFDF7BCFDFEF7DAFD64
:1034C0000EA0FFF7F3F81D48FFF7F0F81C490120A4
:1034D000CDE90001420200231AA11E4801F004FEBA
:1034E000012805D01CA0FFF7E1F84FF0FF301CBD0C
:1034F00001F0A6F8FEE70000303C0020D5E2CAC784
:1035000031B8F653544D33324631303343385436A4
:10351000BFAAB7A2B0E52D4672656543544F532D3F
:10352000D6C7C4DCBBB7BEB3BCE0B2E2CFEEC4BF0B
:10353000CAB5D1E9A3A10D0A00000000C0570008D8
:103540009C0000204170705461736B43726561741C
:1035500065000000610A00085461736B20637265A6
:103560006174696F6E206661696C6564210D0A0083
:10357000F0B50B30154D20F007010024144A0FE080
:1035800003688B420BD38B4205D95E1A43184768F8
:10359000C3E9006700E04368136002C004E0021D55
:1035A00010680028ECD12046002802D1286808B114
:1035B0000020F0BD064A07481060074A121A22F0A0
:1035C0000702C0E9002401202860D7E7CC000020D2
:1035D000C800002044400020404200202DE9F04176
:1035E000184E0F460446F5683068001D00F0FCFCDC
:1035F00038B9306890F82C10012088403169814337
:103600003161601C07D137B13168BDE8F0410E4827
:10361000091D00F02FBD30682C44AC424460316875
:1036200005D2B06BBDE8F041091D00F00BBD706B19
:10363000091D00F007FDB06A844200D2B462BDE803
:10364000F081000028000020F40300202DE9F04163
:10365000054600F01BFD2D4EB068401CB060306880
:103660002B4F10B1706930B32BE03560B068012882
:1036700027D1002404EB840007EB800000F0D4FC89
:10368000641C202CF6D3234800F0CEFC21481430D3
:1036900000F0CAFC1F48283000F0C6FC1D483C3032
:1036A00000F0C2FC1B48503000F0BEFC19487063AB
:1036B0001430B06305E03068E96AC06A884200D817
:1036C0003560706A0121401C7062E86A326981408D
:1036D0001143316100EB800007EB8000291D00F0F1
:1036E000C9FC00F00BFD706900280CD03068E96A55
:1036F000C06A884207D208494FF080500860BFF383
:103700004F8FBFF36F8FBDE8F081000028000020CD
:1037100024010020A403002004ED00E010B500F017
:10372000B5FC0E4C2068A0B90D4800F07DFC0C489B
:10373000143000F079FC0A48E06014302061002267
:1037400010210A2001F000FA206010B105A100F05C
:103750009FFDBDE8104000F0D1BC000064000020D7
:1037600008040020546D72510000000070B5124E24
:10377000124D1CE001F01AF8306820B1002401F06D
:1037800061FEA4B901E00124F9E700F07FFCF068D4
:10379000C468201D00F028FCA868401EA860686866
:1037A000401E686000F0AAFC204600F052F86868ED
:1037B0000028DFD170BD0000E003002028000020B9
:1037C00030B4026C0B46002A0BD0C1681144C160B2
:1037D0004468A14201D30168C16030BC1846FCF7BF
:1037E000EDBC30BC70472DE9F041856B17460446AF
:1037F0000026026C82B1C7B1E068FCF7DFFCE1682B
:10380000206C091AE1602268914202D26168081AAC
:10381000E060022F16D017E02068A8B9606801F0B8
:1038200019FD0646002060600EE0A068FCF7C6FCAB
:10383000216CA0680844A0606168884204D32068B5
:10384000A06001E005B16D1E6D1CA5633046BDE8AA
:10385000F08110B50446006B00F07EFC2046BDE808
:10386000104000F079BC000010484FF4505142075E
:1038700006D0C01D0D4920F00700411AC1F5505176
:103880000B4A00230144C2E900030839103A21F031
:10389000070111604B600B600B1AC0E900139360C5
:1038A0004FF000405360D0607047000030040020AB
:1038B00094000020074E4FF08054074DFFF756FF4D
:1038C00030680128FAD92C60BFF34F8FBFF36F8F98
:1038D000F4E700002401002004ED00E02DE9F047AA
:1038E000DDE909840E4682466FF00301206B01EB8F
:1038F00082010844089D20F007079946780705D003
:1039000040F22B3219A11FA0FEF7D0FE0020221892
:10391000315C82F83410315C11B1401C1028F6D3B0
:10392000002684F84360202D00D31F25E562C4E9FA
:103930001156201D00F083FB04F1180000F07FFBFE
:103940002461C5F120006462A061E66484F85060DF
:103950004A465146384600F035FB2060B8F1000F6A
:1039600001D0C8F80040BDE8F087000046726565E8
:1039700052544F535C7372635C7461736B732E6348
:10398000000000004572726F723A25732C25640D99
:103990000A00000030B5114900E011460A68824271
:1039A000FBD34B685C18844203D1406818444860DC
:1039B000084643681C18944209D1084C103C2468FE
:1039C000A24209D052681A4442600A681268026032
:1039D000814200D0086030BD0460F9E79400002007
:1039E00070B5002441600B4D0061914206D8D11A98
:1039F0008269914206D2011D286907E09A4203D2EA
:103A0000994201D3012403E0011DE86800F01AFB8C
:103A1000204670BD6400002010B5044600F036FB5F
:103A2000A06B20B1002400F069FB204610BD0124EA
:103A3000F9E700002DE9F34100980F460026846C59
:103A40002CB940F6CE1216A11BA0FEF72FFEA06BDC
:103A5000E16B884205D340F6CF1211A116A0FEF704
:103A600025FEA06BE16B88420CD294F945503A4692
:103A700069462046FFF7B7FE0646681C05D06D1C58
:103A800084F845503046BDE8FC81606A0028F9D0D2
:103A900004F1240001F03AFC0028F3D00126F1E7FC
:103AA0004672656552544F535C7372635C71756501
:103AB00075652E63000000004572726F723A2573BF
:103AC0002C25640D0A000000F8B5054614480E4682
:103AD000C068C068C468201D00F086FAE06901284B
:103AE00017D1A0692B46411932462046FFF778FFCF
:103AF00078B100200346014600902A46204601F096
:103B0000E1FD30B907494FF4027201F11800FEF7E8
:103B1000CDFD616A01B02046BDE8F04008470000D5
:103B2000640000202856000870B586B02F4E53E080
:103B30000198002806DADDE90301029A904701980E
:103B4000002849DB039C606910B1201D00F04CFA8D
:103B500005A800F0A7F8054601980A283CD2DFE83E
:103B600000F00505053B273805053B270298A169AC
:103B7000034601442A462046FFF732FF00282BD097
:103B8000616A20468847E069012825D1002000901D
:103B90000298A169002342181946204601F092FDBF
:103BA000D0B940F2213212A117A0FEF77FFD13E039
:103BB0000298A06128B94FF44E720DA112A0FEF731
:103BC00075FDA0692B4641191A462046FFF708FFEC
:103BD00002E0204600F0C0FA00231A4601A930682E
:103BE00000F0EAFF0028A3D106B070BD64000020F9
:103BF0004672656552544F535C7372635C74696DB1
:103C00006572732E630000004572726F723A2573FD
:103C10002C25640D0A000000F8B50D46064600F09C
:103C2000C5FD684600F03EF80446009810B101F06A
:103C300009FCF8BD1148ADB101690968D9B1002589
:103C4000311B2A46006800F035FB01F0FBFB002821
:103C5000EFD10B494FF080500860BFF34F8FBFF397
:103C60006F8FF8BDA642EBD801F0ECFB2146304641
:103C7000FFF72AFFF8BD0125E2E7000064000020FD
:103C800004ED00E00648416B096829B1416BC96841
:103C9000C9684968816270474FF0FF31FAE7000058
:103CA0002800002070B5054601F058FA064E04467B
:103CB000B068844203D200F009F8012000E000203F
:103CC00028602046B46070BD64000020F8B5184E2E
:103CD00026E0C068C4680568201D00F085F9616AA7
:103CE00020468847E06901281AD1A0692844A842E3
:103CF00006D924616060211DF06800F0A3F90FE08F
:103D000000200346014600902A46204601F0DAFCD6
:103D100030B9084940F2923201F11800FEF7C6FCB2
:103D2000F06801680029D4D13169C6E90310F8BDF3
:103D3000640000202856000808484068401C04D051
:103D4000F42207A10FA0FEF7B1FC502080F31188E8
:103D5000BFF34F8FBFF36F8FFEE7000078000020A6
:103D60004672656552544F535C706F72745C525664
:103D700044535C41524D5F434D335C706F72742EFF
:103D8000630000004572726F723A25732C25640D32
:103D90000A00000070B50025040005D140F28162E0
:103DA00007A10DA0FEF782FC0F496069884205D18A
:103DB000A06A2839884201D000B90125284670BD83
:103DC0004672656552544F535C7372635C746173E1
:103DD0006B732E63000000004572726F723A257398
:103DE0002C25640D0A000000F40300200346002087
:103DF00012B1994302D070470B42FCD001207047AA
:103E0000084CE068016839B1002139B10020FFF7A2
:103E100003FFFFF789FEF4E70121F6E7C0680068B9
:103E2000F5E70000640000202DE9F041044600F0B1
:103E30002DF994F9455004F1240610E0A06C20B14E
:103E400000212046FFF7F6FD04E0606A48B13046E5
:103E500001F05CFA08B100F0EFFA6D1E6DB2002DB2
:103E6000ECDC4FF0FF3684F8456000F047F900F0D5
:103E70000DF994F9445004F1100709E0206948B1A4
:103E8000384601F043FA08B100F0D6FA6D1E6DB263
:103E9000002DF3DC84F84460BDE8F04100F02EB959
:103EA0002DE9F0410546002600F080FC324F3868CD
:103EB00008B9FFF7D9FCF86805424FD1002D4DD065
:103EC000083568070BD005F00700C0F1080005446D
:103ED000680704D0BF2229A130A0FEF7E7FB002D20
:103EE0003CD07868854239D82349103108460468A7
:103EF00001E0214604466068A84202D220680028FA
:103F0000F7D13868B846844228D00E682068086027
:103F100060680836401B10280ED96719780704D04E
:103F2000EC2216A11DA0FEF7C1FB6068401B786063
:103F300038466560FFF72EFD6168D8F804004246F8
:103F4000401AC8F80400D8F80830984200D29060AF
:103F5000D8F80C0001430020C4E9000101F072FA16
:103F6000700705D04FF4967204A10CA0FEF79EFBDB
:103F70003046BDE8F081000084000020467265658F
:103F800052544F535C706F72745C4D656D4D616E31
:103F9000675C686561705F342E6300004572726F04
:103FA000723A25732C25640D0A0000000449086844
:103FB00018B10868826C521C82640868704700005F
:103FC0002800002010B5031F4FF080741C601B1FD9
:103FD00021F001011960191F024B0B6014394038A0
:103FE0000A6010BD393D0008D0E9013201699A60CC
:103FF000D0E901235A604A68824201D182684A604E
:10400000002202610868401E086070470449086881
:104010000A688069D26A0968C2F120028A61704721
:104020002800002000F00ABC00F108014FF0FF3228
:10403000C0E90112C16001610021016070470021E7
:104040000161704730B50C68621C02D000F10802B3
:1040500002E0026904E01A4653681D68A542FAD9D5
:1040600053684B6099608A60516008610168491C1F
:10407000016030BD42684A6093688B609368596004
:10408000916008610168491C01607047502080F30D
:104090001188BFF34F8FBFF36F8F09494868401CE9
:1040A000486001280AD10748006810F0FF0F05D0CA
:1040B0004FF4BD7204A10DA0FEF7F8BA70470000DE
:1040C0007800002004ED00E04672656552544F53BD
:1040D0005C706F72745C525644535C41524D5F4346
:1040E0004D335C706F72742E630000004572726F06
:1040F000723A25732C25640D0A00000010B5084C97
:10410000606828B940F2811206A10FA0FEF7CEFA2E
:104110006068401E606001D180F3118810BD00000E
:10412000780000204672656552544F535C706F7280
:10413000745C525644535C41524D5F434D335C7046
:104140006F72742E630000004572726F723A2573AD
:104150002C25640D0A00000070B500282AD0164DE9
:10416000A0F108046068E968084205D14FF4A07224
:1041700012A11AA0FEF79AFA206828B140F2411263
:104180000EA116A0FEF792FA6068E968084211D005
:104190002268002A0ED18843606000F007FB606847
:1041A0006968084468602046FFF7F4FBBDE870408A
:1041B00001F048B970BD00008400002046726565BA
:1041C00052544F535C706F72745C4D656D4D616EEF
:1041D000675C686561705F342E6300004572726FC2
:1041E000723A25732C25640D0A00000006484FF42E
:1041F0007A710068B0FBF1F14FF0E020491E416197
:1042000007210161704700000000002010B5FBF796
:10421000BFFF104C10280CD300F1E02090F8F00301
:104220002178884205D24FF42A720BA113A0FEF721
:104230003DFA16480068A16800F4E060884207D99A
:10424000BDE810404FF42E7203A10CA0FEF72EBA69
:1042500010BD0000780000204672656552544F532F
:104260005C706F72745C525644535C41524D5F43B4
:104270004D335C706F72742E630000004572726F74
:10428000723A25732C25640D0A0000000CED00E045
:1042900010B5074B002253F832401CB1521C0A2AB9
:1042A000F9D310BD43F8321003EBC201486010BDD2
:1042B000D400002070B515460E460446FFF7E6FE12
:1042C00094F944100020491C01D184F8440094F969
:1042D0004510491C01D184F84500FFF70FFFA06B82
:1042E00028B92A46314604F1240000F0D7F82046C8
:1042F000BDE87040FFF798BD10B5040012D00E491C
:10430000096B29B140F2CF420CA112A0FEF7CEF901
:1043100000F04CFA00212046FFF760F901F092F816
:10432000002807D10F494FF080500860BFF34F8F2E
:10433000BFF36F8F10BD0000280000204672656536
:1043400052544F535C7372635C7461736B732E636E
:10435000000000004572726F723A25732C25640DBF
:104360000A00000004ED00E070B50446FFF78EFE81
:10437000234D04B92C68201DFFF736FE58B9E06ABA
:10438000204A00EB800152F8211021B9012181401F
:10439000286988432861A06A18B104F11800FFF762
:1043A00023FE686A401C68622868844207D1211D88
:1043B0001548FFF75FFE6868401C686007E0A86862
:1043C000401EA8602046FFF744FAFFF75BFCFFF7AA
:1043D00095FE6869002812D0286884420FD1286BA6
:1043E00028B140F2654209A10EA0FEF75FF911491C
:1043F0004FF080500860BFF34F8FBFF36F8F70BDD9
:104400002800002024010020E0030020467265659A
:1044100052544F535C7372635C7461736B732E639D
:10442000000000004572726F723A25732C25640DEE
:104430000A00000004ED00E001490120C861704756
:104440002800002070B50D46040005D140F6063264
:1044500007A10DA0FEF72AF90F4801682046183180
:10446000FFF7F0FD2846BDE870400121FFF7B6B820
:104470004672656552544F535C7372635C7461732A
:104480006B732E63000000004572726F723A2573E1
:104490002C25640D0A0000002800002070B5144689
:1044A0000E46050005D140F6313209A10EA0FEF7F7
:1044B000FDF81148016828461831FFF7DBFD0CB103
:1044C0004FF0FF3621463046BDE87040FFF786B812
:1044D0004672656552544F535C7372635C746173CA
:1044E0006B732E63000000004572726F723A257381
:1044F0002C25640D0A000000280000202DE9F04161
:1045000017460E46050005D140F617320DA113A03F
:10451000FEF7CCF8154C206B28B940F61B3209A1E8
:104520000EA0FEF7C3F8216846F0004088612168BC
:1045300028461831FFF79EFD3846BDE8F0410121BD
:10454000FFF74CB84672656552544F535C73726303
:104550005C7461736B732E63000000004572726FB0
:10456000723A25732C25640D0A00000028000020F3
:1045700070B5040039D01D4DE06A2968C96A8842C7
:1045800033D2A069002804DB2868C06AC0F120008B
:10459000A061E06A164E00EB8000616906EB8000C6
:1045A00081421FD1201DFFF71FFD012150B9E06A94
:1045B00000EB800256F8222022B92A6901FA00F0A5
:1045C00082432A612868C06AE0622A6981401143F7
:1045D000296100EB800006EB8000211DBDE87040E2
:1045E000FFF748BD2868C06AE06270BD280000205F
:1045F0002401002010B5040005D140F6C13205A108
:104600000AA0FEF753F80D48016A2160C068606097
:1046100010BD00004672656552544F535C7372635F
:104620005C7461736B732E63000000004572726FDF
:10463000723A25732C25640D0A0000002800002022
:104640001CB517480024CDE900402346802215A15F
:10465000164800F049FD012803D100F0F9FF0128B8
:104660000AD0401C1BD102B040F28472BDE8104059
:104670000FA115A0FEF71AB8502080F31188BFF3E0
:104680004F8FBFF36F8F06484FF0FF312C38816298
:1046900001214161C460BDE81C4000F003BA1CBDAB
:1046A0005400002049444C4500000000B538000883
:1046B0004672656552544F535C7372635C746173E8
:1046C0006B732E63000000004572726F723A25739F
:1046D0002C25640D0A00000070B50446FFF7D6FCD7
:1046E000244D04B92C68201DFFF77EFC58B9E06A00
:1046F000214A00EB800152F8211021B901218140AB
:10470000286988432861A06A18B104F11800FFF7EE
:104710006BFC211D1948FFF7ADFCFFF7EFFC686942
:1047200028B1FFF7B3FCFFF7ADFAFFF7E7FC286805
:10473000844211D1686980B1286B28B140F2576278
:104740000FA115A0FDF7B2FF17494FF08050086088
:10475000BFF34F8FBFF36F8F70BD0848A968006823
:10476000884202D10020286070BDBDE8704000F092
:1047700025B800002800002024010020F4030020B8
:104780004672656552544F535C7372635C74617317
:104790006B732E63000000004572726F723A2573CE
:1047A0002C25640D0A00000004ED00E00248016BB6
:1047B000491C0163704700002800002070B5134DAC
:1047C000286B10B10120E86170BD0020E861286904
:1047D0000F4EB0FA80F0C0F11F0000EB800456F8D5
:1047E000240028B940F6F6220AA110A0FDF75EFFCA
:1047F00006EB840000F1080241684968416091427B
:1048000001D149684160C868286070BD2800002057
:10481000240100204672656552544F535C737263E5
:104820005C7461736B732E63000000004572726FDD
:10483000723A25732C25640D0A00000070B50E46EF
:10484000040005D140F2DF120AA111A0FDF72EFFEE
:10485000300E05D04FF4F07206A10DA0FDF726FF33
:10486000FFF714FC256825EA06002060FFF746FCE8
:10487000284670BD4672656552544F535C7372632F
:104880005C6576656E745F67726F7570732E63001A
:104890004572726F723A25732C25640D0A00000070
:1048A00010B51820FFF7FCFA040004D000202060A7
:1048B000201DFFF7B9FB204610BD5022EFF31181F8
:1048C00082F31188BFF34F8FBFF36F8F006881F3BE
:1048D000118870472DE9F04100258846040005D174
:1048E00040F21D221CA123A0FDF7E0FE5FEA186044
:1048F00005D040F21E2218A11EA0FDF7D7FE261DEE
:1049000004F10C07FFF752FF2168F06841EA080143
:10491000216017E0D0E9001601F07F4253012368BF
:1049200021F07F4102D40B4203D10AE031EA0303B4
:1049300007D1D20100D50D43216841F0007100F08C
:1049400033FD3046B842E5D12068A843206000F02E
:1049500079FD2068BDE8F0814672656552544F5379
:104960005C7372635C6576656E745F67726F757099
:10497000732E63004572726F723A25732C25640D95
:104980000A0000002DE9F047089F9A4691460D461F
:1049900004004FF0000605D140F24D1235A13CA0B5
:1049A000FDF784FE280E05D04FF4A77231A138A080
:1049B000FDF77CFE2DB940F24F122EA134A0FDF779
:1049C00075FE00F0BDFB30B92FB14FF4A97229A1DB
:1049D0002FA0FDF76BFEFFF7E9FED4F800805246EA
:1049E00029464046FFF702FA40B100274646B9F192
:1049F000000F15D02068A843206011E0AFB1B9F1D5
:104A0000000F01D04FF08076BAF1000F01D046F0D0
:104A1000806645EA06013A46201DFFF76FFD002635
:104A200000F010FD1FB310B109E04646F8E71C493D
:104A30004FF080500860BFF34F8FBFF36F8FFFF7C9
:104A4000E5FA0646800110D4FFF720FB266852469F
:104A500029463046FFF7CAF928B1B9F1000F02D054
:104A60002068A8432060FFF749FB26F07F463046C8
:104A7000BDE8F0874672656552544F535C737263AC
:104A80005C6576656E745F67726F7570732E630018
:104A90004572726F723A25732C25640D0A0000006E
:104AA00004ED00E01CB51A4908780190FF20087059
:104AB00008788DF800009DF80000164A00F05000BC
:104AC00010700720906007E09068401E90609DF88D
:104AD000000040008DF800009DF800000006F3D4AF
:104AE000107A000200F4E0609060019808700A48B3
:104AF000016841F470010160016841F0704101609A
:104B0000FFF774FB00205060FBF70CFB00201CBD7E
:104B100000E400E07800002020ED00E010B5502017
:104B200080F31188BFF34F8FBFF36F8F00F01CFB32
:104B300018B104494FF080500860002080F31188BC
:104B400010BD000004ED00E070B50E46050005D173
:104B50004FF4C4720EA114A0FDF7A8FDA6B105FB89
:104B600006F04C30FFF79CF904000CD004F14C0027
:104B700066B12060C4E90F562046012100F0E0F83C
:104B800000212046A16470BD0020EAE72460F1E71F
:104B90004672656552544F535C7372635C71756500
:104BA00075652E63000000004572726F723A2573BE
:104BB0002C25640D0A0000002DE9FF4F83B09B46B1
:104BC0008A4604004FF0000605D140F2DC4251A1B4
:104BD00056A0FDF76BFDBAF1000F07D1206C28B18C
:104BE00040F2DD424BA151A0FDF760FD00F0A8FAB4
:104BF00038B9059828B14FF49C6246A14BA0FDF747
:104C000055FD4FF000094FF08057DFF83081FFF776
:104C10003DFAA56B45B351462046E668FEF7D0FD48
:104C2000BBF1000F13D0E660606A50B104F12400BC
:104C300000F06CFB28B1C8F80070BFF34F8FBFF3D2
:104C40006F8FFFF75BFA012007B0BDE8F08F6D1E94
:104C5000A563206810B9FFF7A9F9606020690028F2
:104C6000EFD004F11000E3E7059808B11EB106E0AB
:104C7000FFF744FA27E06846FFF7BCFC0126FFF780
:104C80003DFAFFF793FDFFF701FA94F94400401C49
:104C900001D184F8449094F94500401C01D184F876
:104CA0004590FFF72BFA05A9684600F0D7F90028D0
:104CB00020460AD0FFF7B8F800F0C4FB2046FEF704
:104CC000ABFE0028A3D00020BEE7FEF7A5FED8B1BA
:104CD000206830B9FFF7DAF96068FFF749FCFFF7A1
:104CE0000DFA04F124000599FFF7ACFB2046FFF70D
:104CF0009BF800F0A7FB002889D1C8F80070BFF32B
:104D00004F8FBFF36F8F82E72046FFF78DF800F0DB
:104D100099FB7CE74672656552544F535C7372632E
:104D20005C71756575652E63000000004572726FD9
:104D3000723A25732C25640D0A00000004ED00E092
:104D400070B50D46040005D140F21B121CA122A033
:104D5000FDF7ACFCFFF79AF9D4E90F20216802FBBC
:104D6000001161600021A1632168A1600A46D4E9B5
:104D70000F01401E00FB0121E16021464FF0FF3092
:104D800001F8440F487004F110004DB1FFF74CF9E1
:104D900004F12400FFF748F9FFF7B0F9012070BDD6
:104DA00021690029F8D000F0B1FA0028F4D00E49AA
:104DB0004FF080500860BFF34F8FBFF36F8FEBE76A
:104DC0004672656552544F535C7372635C717565CE
:104DD00075652E63000000004572726F723A25738C
:104DE0002C25640D0A00000004ED00E02DE9FF4FC2
:104DF00083B099468B4604004FF0000605D140F27F
:104E0000D92252A157A0FDF751FCBBF1000F07D1E9
:104E1000206C28B140F2DA224CA152A0FDF746FCEA
:104E2000B9F1020F08D1E06B012805D040F2DB2276
:104E300046A14CA0FDF73AFC00F082F938B905987C
:104E400028B140F2DE2241A146A0FDF72FFC4FF031
:104E5000000A4FF08057DFF81C81FFF717F9A06BAD
:104E6000E16B884206D3B9F1020F03D0059800B375
:104E700016B325E04A4659462046FEF7B4FCA16C1D
:104E800021B149462046FEF7D5FD05E0616A19B11A
:104E900004F1240000F03AFA28B1C8F80070BFF31A
:104EA0004F8FBFF36F8FFFF729F9012007B0BDE8DF
:104EB000F08FFFF723F921E06846FFF79BFB0126FF
:104EC000FFF71CF9FFF772FCFFF7E0F894F94400D4
:104ED000401C01D184F844A094F94500401C01D144
:104EE00084F845A0FFF70AF905A9684600F0B6F86E
:104EF00030B12046FEF798FF00F0A4FA0020D5E775
:104F0000FFF7C4F8A06BE16B884201D1012500E0F6
:104F10000025FFF7F3F895B104F110000599FFF7AC
:104F200091FA2046FEF780FF00F08CFA002894D119
:104F3000C8F80070BFF34F8FBFF36F8F8DE7204627
:104F4000FEF772FF00F07EFA87E7000046726565A3
:104F500052544F535C7372635C71756575652E6353
:104F6000000000004572726F723A25732C25640DA3
:104F70000A00000004ED00E02DE9F04798461546D0
:104F80008946040005D140F29F322AA12FA0FDF7E7
:104F90008DFBB9F1000F07D1206C28B14FF4687276
:104FA00024A12AA0FDF782FBB8F1020F08D1E06B23
:104FB000012805D040F2A1321EA124A0FDF776FB06
:104FC000FFF724F95020EFF3118780F31188BFF326
:104FD0004F8FBFF36F8FA06BE16B884207D3B8F19F
:104FE000020F04D0002087F31188BDE8F08794F900
:104FF0004560424649462046FEF7F5FB701C04D04A
:10500000761C84F845600120EDE7A06C012620B1F4
:1050100041462046FEF70EFD06E0606A0028F2D009
:1050200004F1240000F072F90028ECD0002DEAD041
:105030002E60E8E74672656552544F535C737263A5
:105040005C71756575652E63000000004572726FB6
:10505000723A25732C25640D0A00000070B50D46C8
:10506000040005D140F6CB3214A11AA0FDF71EFBB7
:105070002DB940F6CC3211A116A0FDF717FBFFF7B2
:1050800005F8184AD06829684B1C0FD02368126AAB
:10509000934202D0626882420AD96268801A8842CA
:1050A00006D2081A28602046FFF7A4FA002400E080
:1050B0000124FFF723F8204670BD000046726565A5
:1050C00052544F535C7372635C7461736B732E63E1
:1050D000000000004572726F723A25732C25640D32
:1050E0000A000000280000202DE9FF5F8346DDE96B
:1050F0000E87994616468A469000FEF7D1FE0500B7
:105100001AD05420FEF7CCFE040012D025630021F3
:10511000CDE90241CDE900874B463246514658461B
:10512000FEF7DCFB2046FEF791FA012004B0BDE853
:10513000F09F2846FFF710F84FF0FF30F6E7000029
:105140000548416919B1006B18B100207047012072
:105150007047022070470000280000200148C06806
:1051600070470000280000202DE9F0412D4F002657
:10517000386B40B1B869401CB861F86900B10126CC
:105180003046BDE8F081FD686D1CFD6011D1786B83
:10519000006828B140F6D91223A129A0FDF786FAAC
:1051A000786BB96B7963B863386A401C3862FEF774
:1051B00069FDB86ADFF89880854209D3786B00688A
:1051C00080B1786BC068C468606885420DD2B862EF
:1051D0003868C06A00EB800158F821000128CCD95A
:1051E0000126CAE74FF0FF30F1E7201DFEF7FCFE75
:1051F000A06A18B104F11800FEF7F6FEE06A01217A
:105200003A6981401143396100EB800108EB81006C
:10521000211DFEF72FFFE06A3968C96A8842CDD3A5
:105220000126CBE7280000204672656552544F5393
:105230005C7372635C7461736B732E6300000000B7
:105240004572726F723A25732C25640D0A000000B6
:105250002401002070B504004FF000063CD01F4D23
:105260002868844205D040F6C7621DA122A0FDF740
:105270001DFAA06C28B940F6C96219A11EA0FDF75D
:1052800015FAA06C401EA064626CE16A914223D0C2
:1052900010BB201DFEF7A8FE1B49012250B9E06A91
:1052A00000EB800351F8233023B92B6902FA00F098
:1052B00083432B61606CE062C0F12000A061E06A72
:1052C0002B6982401A432A6100EB800001EB8000C9
:1052D000211DFEF7CFFE0126304670BD28000020BC
:1052E0004672656552544F535C7372635C746173AC
:1052F0006B732E63000000004572726F723A257363
:105300002C25640D0A000000240100202DE9F04145
:10531000C068C4682CB940F6613216A11BA0FDF725
:10532000C5F904F118000746FEF75EFE1B4D286B19
:10533000012660B139461A48FEF79CFEE06A2968EA
:10534000C96A884213D90120EE61BDE8F081201DB1
:10535000FEF74AFEE06A2A6906FA00F11143296164
:10536000104900EB800001EB8000211DE4E70020E4
:10537000EBE700004672656552544F535C737263ED
:105380005C7461736B732E63000000004572726F72
:10539000723A25732C25640D0A00000028000020B5
:1053A000CC0300202401002070B51A4D06460C469F
:1053B000286B28B940F6993217A11DA0FDF776F9A0
:1053C00044F000403060F4682CB940F6A13212A1DC
:1053D00017A0FDF76BF93046FEF706FE201DFEF71D
:1053E00003FEE06A01262A6906FA00F111432961E9
:1053F000134900EB800001EB8000211DFEF73AFE0F
:10540000E06A2968C96A884202D90120EE6170BD4C
:10541000002070BD280000204672656552544F532D
:105420005C7372635C7461736B732E6300000000C5
:105430004572726F723A25732C25640D0A000000C4
:10544000240100202DE9F0472B4D00242746286B2E
:1054500028B94FF4FD6229A12EA0FDF727F9FEF728
:1054600015FE286B401E2863286BE8BBA8682D49F1
:105470000126C8B3A1F52A798846D8F80010E9B109
:10548000D8F80C00C46804F11800FEF7ADFD201D2B
:10549000FEF7AAFDE06A2A6906FA00F111432961C4
:1054A00000EB800109EB8100211DFEF7E3FDE06ABE
:1054B0002968C96A8842E0D3EE61DEE70CB1FEF7E5
:1054C000E1FBAC693CB1FFF74FFE00B1EE61641E39
:1054D000F9D10020A861E86930B1134901273807E4
:1054E0000860BFF34F8F00E001E0BFF36F8FFEF75E
:1054F00005FE3846BDE8F087280000204672656545
:1055000052544F535C7372635C7461736B732E639C
:10551000000000004572726F723A25732C25640DED
:105520000A000000CC03002004ED00E02DE9F0416A
:105530000026040005D140F2E2621BA120A0FDF785
:10554000B5F8FEF763FE5020EFF3118580F3118864
:10555000BFF34F8FBFF36F8F2046FEF71BFCE8B100
:105560001B4F386B18B104F118011A4814E0E06AB7
:105570003968C96A884200D30126201DFEF734FD30
:10558000E06A01213A69814011433961124900EB17
:10559000800001EB8000211DFEF76CFD85F3118872
:1055A0003046BDE8F08100004672656552544F53A5
:1055B0005C7372635C7461736B732E630000000034
:1055C0004572726F723A25732C25640D0A00000033
:1055D00028000020CC030020240100202DE9F04702
:1055E0000746994616460D462820DDF820A0FEF70E
:1055F00057FC040014D0B8464F46D1462DB94FF49D
:10560000C67209A10EA0FDF751F8FEF787F804F164
:105610001801C4F8008081E8E002201DFEF70FFDAC
:105620002046BDE8F08700004672656552544F532E
:105630005C7372635C74696D6572732E6300000045
:105640004572726F723A25732C25640D0A000000B2
:105650001CB50024FEF762F80C48006868B10B49DD
:105660001F20091DCDE9000100234FF4807208A11D
:105670000948FFF739FD040005D140F2331207A1B4
:105680000CA0FDF713F820461CBD000064000020AC
:10569000546D722053766300013E000846726565C2
:1056A00052544F535C7372635C74696D6572732EF0
:1056B000630000004572726F723A25732C25640DE9
:1056C0000A0000002DE9FF47DDF830A0994690461A
:1056D0000D4606004FF0000705D14FF4D37212A11A
:1056E00017A0FCF7E3FF1A4C206880B1CDE9005801
:1056F0000296062D11DAFFF723FD02284FF0000372
:1057000009D0002269462068FFF770FB074604B005
:105710003846BDE8F0875246F4E700234A4669461A
:10572000FFF72AFCF2E700004672656552544F53BA
:105730005C7372635C74696D6572732E6300000044
:105740004572726F723A25732C25640D0A000000B1
:10575000640000207FB56FF0010401AE009486E87C
:10576000070005481D4600232A4669460068FFF7E2
:1057700003FC04B070BD00006400002002000000C3
:1057800004FA97999999D93FAF788E1DC571CC3F8E
:105790009FC678D0099AC33F935555555555E53F57
:1057A000599322942449D23FDE03CB966446C73FE7
:1057B00044523EDF12F1C23F000000000000000032
:1057C000B4F2BFAA57694669A3ACD7D4B6AFC1AC8F
:1057D000BDD357694669A3ACB0B4CFC24B4559316C
:1057E000B7A2CBCDCEC2B6C8CAFDBEDDB5BD54682A
:1057F000696E6773436C6F7564CEEFC1AACDF8C64E
:10580000BDCCA80D0A0000002858000800000020A8
:10581000D4000000CA270008FC580008D40000206B
:105820006C450000DA27000800A24A0400000000CE
:10583000000000000102030406070809020406082C
:105840000000000001020304010203040607080926
:105850000000000000000000000000000000000048
:105860000000000000000000000000000000000038
:105870000000000000000000000000000000000028
:105880000000000000000000000000000000000018
:105890000000000000000000000000000000000008
:1058A00000000000AAAAAAAA000000000000000050
:1058B00000000000000000000000000000000000E8
:1058C00000000000000000000000000000000000D8
:1058D00000000000000000000000000000000000C8
:1058E00000000000000000000000000000000000B8
:0C58F000000000000000000000000000AC
:04000005080000ED02
:00000001FF
